:020000040800F2
:10000000080C0020FD3B0008E9380008EB38000828
:1000100000000000000000000000000000000000E0
:10002000000000000000000000000000ED380008A3
:100030000000000000000000EF380008F138000860
:10004000FB1D0008FF1D0008F9380008031E00080A
:100050007F2700086F360008D338000803390008EE
:1000600000000000EF3B00081339000823390008A6
:10007000FB3B0008213C0008000000003339000869
:1000800000000000233C0008000000000000000009
:10009000253C000800000000273C00083D3900080E
:1000A000293C00082B3C00082D3C00085939000869
:1000B000633900082F3C0008000000000000000029
:1000C00038B5040014D0250074356868002803D1C1
:1000D0002870200000F027FD242068602068016857
:1000E000012291430160200000F0DCF9012801D1D8
:1000F000012032BD606A002802D0200000F0DCFA46
:1001000020684168084A0A404260206881682A22C3
:1001100091438160FFE72068016801220A43026081
:10012000200000F02DFB32BDFFB7FFFF70B50400CB
:1001300001D1012070BD250074352420686020683D
:100140000168012291430160002620680660206852
:10015000466020688660200000F09CFDEE606E60C6
:10016000AE6026662E70002070BD70B505002E00B2
:1001700074367068202843D100290BD0100009D0B4
:10018000A86880235B01984206D12869002803D122
:10019000C80701D5012070BD7420285C01282FD02C
:1001A00001203070E9642800503002804280002431
:1001B000F46021217160C169002918D0294BCB62FC
:1001C0002949C36919632949C3695963C1698C63A2
:1001D00013002A682832E96CC06900F01FFE00286D
:1001E00005D01020F060347020207060D2E74020ED
:1001F00029680862347028688168802200F082FBD8
:10020000022070BD38B5030074339C68202C25D1C2
:1002100000290BD0140009D0846880256D01AC4200
:1002200006D10469002C03D1CC0701D5012032BDD1
:100230007424045D012C11D001241C70002303667A
:100240000368074CA34206D05C68240203D51C68EF
:10025000AD0325431D6000F01FFB32BD022032BDFF
:10026000004800406909000899090008350A00089B
:10027000F8B504002368D9691A6898680090854E1B
:100280000E40250058352020002E09D18E0600D5BD
:10029000960679D5E968002901D020008847F1BD8C
:1002A000009EF60702D47C4E16406DD0CE0706D5D0
:1002B000D60504D501261E62AB6A1E43AE62042336
:1002C00002268F0707D5009FFF0704D527683E62E7
:1002D000AF6A1F43AF624F0707D5009FFF0704D5E2
:1002E00027683B62AB6A1E43AE620B070AD59306D2
:1002F00002D4009BDB0705D5082326683362AE6A6B
:100300003343AB620B0507D5530105D5830126683E
:100310003362AB6A1843A862A86A002829D088060D
:1003200006D5900604D5E968002901D02000884749
:10033000A86A402621688968314002D128210140FD
:100340001CD0200000F0EEFA206881680E4011D029
:100350008168402291438160A86900280AD04F49F2
:100360008163A86900F0B6FD002802D0A869816BFE
:100370008847F1BD200000F05DFEF1BD200000F0D7
:1003800059FE0020A862F1BDAE68012E5BD1CE06F9
:1003900059D5D60657D5102119622368C9430022C2
:1003A0009E6876062CD5AE6936687668B6B2002EA1
:1003B0006CD05827E75BBE4268DA6E80AE6936685B
:1003C0003668064016D11E68354F37401F602368D7
:1003D0009E680127BE439E6023689E684027BE43F7
:1003E0009E606862AA602068026811400160A86986
:1003F00000F04BFD5820205A6988411A89B21EE04E
:100400005826A65B6F88F61B6F463E806E88002ECE
:100410003CD06E463688002E38D01E681C4F3740C0
:100420001F6023689E680127BE439E606862AA60C1
:10043000EA60206802681140016068460188200077
:1004400000F0F9FDF1BDCE0208D5009E760205D57B
:10045000C0031862200000F0EFFDF1BD0E0607D5C5
:10046000160605D52969002910D020008847F1BD5E
:1004700049060BD5510609D51968402291431960E8
:10048000286200202861200000F0D7FDF1BD0000A7
:10049000DFFEFFFF0F08000020010004830A0008B0
:1004A000FFFEFFFFF8B5050000242B6818687B49A4
:1004B0000140A86808432969014368690843E9695C
:1004C00001431960586876490140E868084358605C
:1004D000A86974498B4202D00100286A08439968D0
:1004E000714A0A40104398607048810880221202C5
:1004F0006F4EB34236D16F4EF66CB607B60F04D0CE
:10050000022E6DD06ED3032E66E001260096694B55
:100510001026EF699742009F00D08EE0002F0CD08C
:10052000012F00D17CE0022F00D17CE0042F00D10C
:100530007EE0082F00D17EE0A9E001F09CF80028C1
:100540002ED0696840004A08801801F0C1F880B2D6
:1005500001001039A24A9142EED202400007400F3A
:10056000104384E09F4EB34224D1524EF66C0C27C8
:10057000374033D0042F35D0082F31D00C2F33D053
:100580001026484FBB42C1D1002E06D0022E2DD0DE
:10059000042E31D0082E32D079E001F06CF800281A
:1005A00076D06A6851008918884270D3110381425D
:1005B00027D26CE03B4EB342E2D13E4EF76CC026F0
:1005C00036013E400AD05709BE420BD01709BE4241
:1005D00006D0C0273F01BE4206D0D1E70026D0E7B3
:1005E0000226CEE70426CCE70826CAE7314A12687D
:1005F000D206D6D50800D4E701F004F8CFE7100002
:10060000CFE7070E06025008002180197941002328
:1006100001F079F89D4941189D4A914237D226E070
:1006200001F034F88BE71A6816408AD0080088E792
:1006300000F0E8FF83E7100083E7002F08D0012FC8
:1006400018D0022F19D0042F1CD0082F1DD01EE067
:1006500001F011F800281BD069684A08801801F0E1
:1006600037F880B2010010395D4A91420FD22968F3
:10067000C8600DE001F00AF8ECE71A681640EBD00C
:100680000800E9E700F0BEFFE4E71000E4E701241A
:1006900000206866A8662000F2BD0000F369FFEF45
:1006A000FFCFFFFF00480040FFF4FFFF0024F400ED
:1006B00000380140001002402421415CC90706D5E2
:1006C00001684A68734B1340826A1A434A602421C6
:1006D000415C890706D501684A688C4B1340C26AA1
:1006E0001A434A602421415C490706D501684A68DB
:1006F000874B1340026B1A434A602421415C09076F
:1007000006D501684A68934B1340426B1A434A600E
:100710002421415CC90606D501688A688E4B1340C6
:10072000826B1A438A602421415C890606D50168E0
:100730008A688A4B1340C26B1A438A602421415C49
:10074000490611D501684A68854B1340026C1A436B
:100750004A60026C80235B039A4205D14A68814B50
:100760001340426C1A434A602421415C090606D5B5
:1007700001684A68A24B1340806C18434860704778
:10078000F8B5040000257430C56000F0F1FF0700E3
:100790009C4E20680068000709D500963B000022A7
:1007A00080218903200000F01FF800280DD1206867
:1007B000006840070BD500963B0000228021C9034A
:1007C000200000F011F8002801D00320F2BD210024
:1007D000743120204860886025660D700020F2BDCD
:1007E000F0FF000000440040FEB5089F8024240173
:1007F0000025060001916846027002933068C069C6
:10080000019901400198814201D1012000E00020BE
:1008100069460978884236D10020C0438742EDD02E
:1008200000F0A6FF0299401A874201D3002F11D190
:1008300030680168744A0A400260306881680122A9
:1008400091438160300074302021416081600570E7
:100850000320FEBD306801684907CFD5C16921403A
:10086000CCD0046230680168674A0A400260306890
:100870008168012291438160300074302021416001
:100880008160C160E3E70020FEBD000000FDFFFFC6
:1008900000FD0F00FFFFFDFF70B50600130071653E
:1008A000350058352B800024AC6222206862A8698C
:1008B000002818D05549C1625548A96908635548B0
:1008C000A9694863A8698463726D31682431A86995
:1008D00000F0A4FA002806D01020A8622C7720206F
:1008E0002862012070BD2C77306801688022520098
:1008F0000A4302603068816801220A4382603068DE
:10090000816840220A438260002070BDFFFFFEFF25
:10091000FFFFFBFF01680A68C0239A430A60202199
:100920008167704701680A685B4B13400B60016880
:100930008A6801239A438A60016E012904D1016803
:100940000A6810239A430A602021C16700210166CA
:1009500041667047FF7FFFFFFFEFFFFFFFDFFFFFF5
:10096000FFFFEFFFFFFF9FFF80B50100886A096866
:10097000096889060DD400215222815201688A68D3
:1009800080239A438A600068016840220A4302601B
:1009900001BD00F052FB01BD80B5806A00F0EEFEA3
:1009A00001BD38B50100886A020058322023096869
:1009B0000968194018D1518001680C68374D2540ED
:1009C0000D6001688C680125AC438C6001688C68FF
:1009D0004025AC438C6053629168012904D10168C1
:1009E0000B681024A3430B609168012904D158219E
:1009F000415A00F020FB31BD00F079F931BD000013
:100A0000FFFFF7FFFFFFFF015FFEFFFFA3090008E5
:100A1000190A0008350A000880B5806A016E0129AC
:100A200005D15821415A490800F005FB01BD00F0ED
:100A3000A6FE01BDF8B5846AA06F25007835696807
:100A4000009127005237002621688968090605D5DC
:100A5000212803D13E802000FFF75CFF20688068DA
:100A6000400606D50098222803D13E812000FFF7DA
:100A700059FFA86810210143A960200000F0DAFAAC
:100A8000F1BD80B5806A0100523100220A810A80DE
:100A900000F0D0FA01BD0000DFFEFFFFFFFEFFFF08
:100AA00080B5974897490160E121490241600021E2
:100AB0008160C16001610C2242618161C16101629A
:100AC0004162FFF7FDFA002801D000F057FF01BD99
:100AD00010B58D4C8D48206096208001606000200C
:100AE000A060E06020610C216161A061E061206292
:100AF00060622000FFF7E4FA002801D000F03EFF1A
:100B0000FF22210088312000FFF77CFB002801D064
:100B100000F034FF0A2000F033FF20680168102243
:100B20000A43026010BDF1B586B01421684600F09A
:100B30003BFF069802688027754C03260220754902
:100B40000025704B9A424ED18A68430313438B6051
:100B50000A68012313430B600968CA07D20F059284
:100B6000059971020091019002950396042004906A
:100B70006946A020C00500F01FFF674814302060C0
:100B80006660A560E56027616561A561E561256234
:100B9000200000F0C9F8002801D000F0EFFE069810
:100BA00004670698A0625C48A064E6641020206593
:100BB0006565A765E56525666566A566200048301C
:100BC00000F0B2F8002801D000F0D8FE2000483034
:100BD0000699C86606982067002200211B2001F0B4
:100BE00098F81B2052E0494B9A4251D1CA6803043D
:100BF0001343CB6001220B6813430B6009680A4062
:100C0000059205990C21009101900295039604200C
:100C100004906946A020C00500F0CEFE2600903664
:100C20003D483C30306004207060B560F56037614D
:100C30007561B561F5613562300000F075F8002826
:100C400001D000F09BFE069806670698B062324815
:100C50002830B0640420F064102030657565B765F5
:100C6000F56535667566B566D834200000F05CF829
:100C7000002801D000F082FE0698C466069830670E
:100C8000002200211C2001F044F81C2001F045F84E
:100C900007B0F0BD10B504002268A020C0051F49B0
:100CA000184B9A420FD10A681D4B13400B60C021AC
:100CB000C90000F03BFF206F00F078F8E06E00F014
:100CC00075F81B2010E0114B9A420FD14A68154B62
:100CD00013404B600C2100F029FF206F00F066F8F4
:100CE000E06E00F063F81C2001F020F810BD80B524
:100CF0000548FF2201008831FFF784FA01BD00009A
:100D0000CC060020003801402403002000440040AD
:100D1000AC0400202C1002401C00024034100240A1
:100D2000FFBFFFFFFFFFFDFF70B5040001D10120F1
:100D300070BD256835482818142100F0C9FC8000D2
:100D400060643348206402202521605428683149BA
:100D50000140A0680843E1680143206908436169D4
:100D60000143A0690843E1690143206A0843286000
:100D7000A0688021C901884210D027481C21026840
:100D80000F23656C1C262E40B3409A430260026814
:100D90006368656C29408B40134303600020E06367
:100DA00001212522A1542421605470BD70B5040096
:100DB00001D1012070BD20680168012291430160CA
:100DC000256812482818142100F082FC8000606415
:100DD0000F482064002028601C210122636C0B4016
:100DE0009A40236C5A600C4A13680F25666C314098
:100DF0008D40AB431360E06220636063A063E063F7
:100E00002522A0542421605470BD0000F8FFFDBFCE
:100E1000000002400F80FFFFA8000240F8B5040068
:100E2000002000252426A65D012E01D10220F2BD5E
:100E300001262427E65502262527E75D012F1FD12D
:100E40002527E655E063206806680127BE43066053
:100E5000200000F0DBF82068216B0029016801D038
:100E60000E2205E0042291430160206801680A22F5
:100E70000A4302602068016801220A43026002E01E
:100E80002421605402252800F2BD30B50100243130
:100E900000222523C35C022B04D00423C3630A7001
:100EA000012030BD03681C680E25AC431C6003683C
:100EB0001C680125AC431C6001234424045D1C25EF
:100EC00025400124AC40056C6C60252403550A7054
:100ED000002030BD70B50022002401212523C35C11
:100EE000022B03D00422C263012418E003681D68AA
:100EF0000E26B5431D6003681D688D431D604423A5
:100F0000C35C1C251D400123AB40056C6B60252391
:100F1000C15424214254816B002900D0884720000D
:100F200070BDFEB5016C0968029101680A68019202
:100F30004422825C1C2313406A461370042320223F
:100F4000029C6D462D780426AE40264014D0019CAC
:100F50001C4011D00C68224002D10A689A430A60F2
:100F60004421415C1C220A409340016C4B60016BA0
:100F7000002947D08847F7BD012302240025029E9F
:100F8000B4466E4636780227B7406646374019D0D9
:100F9000019E264016D00E68324005D10A680A2606
:100FA000B2430A60252143544421415C1C220A407B
:100FB0009440016C4C6024214554C16A002921D021
:100FC0008847F7BD082264466E4636780827B74042
:100FD000274017D0019C224014D00A680E24A24357
:100FE0000A604421415C1C220A4001219140026CAC
:100FF0005160C3632521435424214554416B00298A
:1010000000D08847F7BD2521405C704770B50124AA
:101010004425455D1C262E40B440056C6C60046878
:1010200063608068102802D1A260E16070BDA16099
:10103000E26070BD7047704770477047FEB50600AC
:1010400058D0B74CE0680C2101400091E068802145
:101050004902084001903078C0070ED54F00009833
:10106000082804D00C286AD10198884267D12068EA
:10107000074002D0706800283CD0307880072BD51C
:10108000F068BB4F0921C943009A042A05D00C2AF5
:1010900001D1019A002A00D08CE02268520701D5C4
:1010A000002827D062681740326912023A43626012
:1010B000226811400843206000F0A4FAAD49E268BC
:1010C0001206120F895CC840BC490860BC48006821
:1010D00000F058FE010031D1A70D3078C00600D4D1
:1010E000B4E00098002800D091E02068800503D586
:1010F000B069002800D1A4E16068B2490140306ABB
:101100000843606060680002000AF1690906014353
:1011100061600120316A490B491C8840C003954930
:10112000E2681206120F895CC840A4490860A4480E
:10113000006800F027FE010000D187E0FEBD706866
:10114000884201D1206809E0A021C90288422068B4
:1011500006D17900014321602068790801430AE043
:10116000BA4901402160206879080840029002983D
:101170002068B74901402160706800280DD000F058
:10118000F7FA05002068384000D076E700F0F0FA62
:10119000401B6528F6D30320FEBD00F0E9FA0500E8
:1011A0002068384000D168E700F0E2FA401B65286B
:1011B000F6D3F0E704220192002817D022681140EC
:1011C0000843206000F0D4FA05002068019901402E
:1011D00005D100F0CDFA401B0228F6D9DBE76068A4
:1011E0000740306900023843606075E720680121DC
:1011F0008843206000F0BCFA050020680199014096
:10120000F3D000F0B5FA401B0228F6D9C3E7B06965
:101210000028206830D03843206000F0A9FA05008B
:101220002068800505D400F0A3FA401B0228F7D9F6
:10123000B1E7606863490140306A084360606068F4
:101240000002000AF1690906014361603078000775
:1012500030D570690028206D1DD001210143216522
:1012600000F086FA0500206D800723D400F080FA94
:10127000401B0228F7D98EE776490140216000F033
:1012800077FA050020688005E0D500F071FA401B70
:101290000228F7D97FE701218843206500F068FA2A
:1012A0000500206D800705D500F062FA401B02287A
:1012B000F7D970E73078400765D5002001903805F0
:1012C000A16B014004D1A16B0843A06301200190F0
:1012D00061480068384011D15F48006838435E4972
:1012E000086000F045FA05005B480068384005D109
:1012F00000F03EFA401B6528F6D34CE7B168B942CE
:101300000AD0564800290DD0A022D200914209D11E
:10131000206D210D01432165206D0743276508E0FD
:1013200000100240216D4B4A0A402265216D0840A1
:101330002065670DB06800280CD000F019FA050090
:10134000206D384018D100F013FA401BA94988429B
:10135000F6D320E700F00CFA0500206D38400BD0E2
:1013600000F006FA401BA3498842F6D313E700BFFA
:10137000FFE0FFFFA83B00080198002803D0A06B06
:101380009D490140A163706A00285CD000990C2936
:1013900042D08027BF049949022820682ED10140FD
:1013A000216000F0E5F90500206838400CD000F01D
:1013B000DFF9401B0228F7D9EDE600BF200100202D
:1013C0001C010020FF1FFFFFE0688D490140B06A4B
:1013D0000843F16A0143306B0843E06020687908F4
:1013E0000143216000F0C4F90500206838402AD18B
:1013F00000F0BEF9401B0228F7D9CCE6014021607D
:1014000000F0B6F90500206838401CD000F0B0F9B3
:10141000401B0228F7D9BEE6012812D0E0688021DF
:1014200049020140B26A91420BD1F0218903014087
:10143000F26A914205D1C02109040140306B81421A
:1014400001D00120FEBD0020FEBD00BFFFFFFEFF5A
:10145000FFFFFBFFFFFEFFFF00700040FFFBFFFFF1
:10146000F1B582B000285CD00091624F86480068D8
:10147000C107C90F0098814217D2834C206801210F
:10148000884300990143216000F072F9009D060035
:101490002068C107C90FA94206D000F069F9801B76
:1014A000B842F5D30320FEBD00957D4C029800782C
:1014B000800706D5E068F0218843029989680143D6
:1014C000E1603E4602980078C0074DD5029840681A
:1014D000022819D12168890323D5E16803229143A9
:1014E0000843E06000F044F90700029840680C25CA
:1014F000022818D1E0682840082835D000F038F9D3
:10150000C01BB042F6D3CDE7032802D12168890180
:1015100003E00128216802D14907DED401E08905F2
:10152000DBD40120FEBD032809D1E06828400C2847
:101530001AD000F01DF9C01BB042F6D3B2E7012863
:1015400009D1E068284004280ED000F011F9C01B32
:10155000B042F6D3A6E7E068284005D000F008F9CD
:10156000C01BB0429ED2F6E7009847490968CA07F7
:10157000D20F904215D2444D28680121884300992A
:101580000143296000F0F4F807002868C107C90F7B
:101590000098814205D000F0EBF8C01BB042F4D3B4
:1015A00080E702980078400706D5E0683D49014091
:1015B0000298C0680843E06002980078000707D5E9
:1015C000E0683949014002980069C0000843E060C2
:1015D00000F018F83549E2681206120F895CC8401D
:1015E000334908603348006800F0CCFB010000D1AB
:1015F0000020FEBD89130000FFFFFFEFFFFFFFFE8D
:10160000FFFF02FF50B5264AD16810230C20084086
:10161000042804D0082809D00C2809D023E0106839
:10162000034001D0254850BD254850BD254850BD38
:1016300025488C02240F005D09028C0F641C0021D8
:10164000D668F60301D51F4A03E01268134002D0A2
:101650001A4A002300E01A4A00F0B6FB22000023D9
:1016600000F051F850BD506801210004400F401CAB
:101670008140C80350BD0E48006814490E4A1268E4
:10168000520509E000000000002002400848006800
:101690000E49094A12689204520F895CC84070478B
:1016A00000100240FFF8FFFFFFC7FFFFA83B000844
:1016B000200100201C0100200C10024000093D0008
:1016C0000024F40000127A00B83B0008183C00081F
:1016D000094214D088420FD30122030C01D1000427
:1016E0001204002300185B418B4200D35B1A524165
:1016F000F8D319001000704701000020704708B5AA
:1017000000F07CFB08BD124224D0994228D970B564
:1017100000251B4202D00C00002109E00024012614
:1017200049186441944200D3A41A7641F8D3310099
:10173000012601E0764109D2001864416D41A41AE6
:101740009D41F7D2A4185D41B619F5D330002200AF
:101750002B0070BD1B42D8D108B500F051FB08BD6D
:1017600001D19042D3D202000B000021002070472B
:1017700001484068704700BF14010020704770475F
:10178000F8B50025A026F6058024240200900F005D
:1017900007E02100300000F03CFA380000F0F0F8DB
:1017A0006D1C00988542F4DB01222100300000F01E
:1017B0002AFAF1BD1B2907DD0178A52904D1C07ED5
:1017C0005A2801D10020704701207047F8B500F079
:1017D00019FB00F071F85E4800F0D2F800F026FB2B
:1017E00000F0C2FB00F0DEFBFFF75AF900F046FC08
:1017F000FFF76EF900F074FC564F51E031002800FD
:10180000FFF7D8FF00281FD1694608706B463A00E1
:101810001432F1B2280000F0E7FE002814D14E4E39
:10182000FF21300000F0C0F868460278390014311A
:10183000300000F097FF6846007848490870FF22A2
:10184000211D4748FEF7DEFC6D1C6088401E60804D
:1018500066881C2ED2DA414D2A78002A20D03E49D3
:101860004048FEF782FC00242C7064210A20FFF718
:1018700087FF3878401C3870C0B2052810D13C7002
:10188000FA20400000F07CF80E22391D3548FEF7A2
:101890006CFCFA20400000F073F8334800F0C6FFFB
:1018A000FF2232492E48FEF7ADFC31480078C007D0
:1018B000D1D52E4D2E4CCBE718B599B034210CA8BC
:1018C00000F072F81421684600F06EF81C2105A89B
:1018D00000F06AF827480168274A0A40C10C114302
:1018E00001600A200C9001200F901021109111909E
:1018F00002201590002416941794800518900CA8C7
:10190000FFF79CFB002801D000F038F80F20009072
:1019100003200190802002900394049400216846E3
:10192000FFF79EFD002801D072B6FEE72B20059040
:10193000079408940A9480208002069005A800F07D
:10194000BFFF002801D072B6FEE71AB010BD00003C
:101950008813000000000020CC05002000080020B3
:1019600024030020CC060020B80B0000AC030020AC
:10197000A803002000700040FFE7FFFF72B6FEE7FB
:1019800038B50500FFF7F4FE04000020C04385428F
:1019900002D0044800782D18FFF7EAFE001BA84289
:1019A000FAD331BD14010020002200BF094202D049
:1019B000491E4254FCD17047FFB500220123019318
:1019C0002BE0062603E09C4EB042FAD10526AE403D
:1019D0002643029C2660994C2668DC4326404D68CD
:1019E000ED0300D51E43954D2E606E6826404F686E
:1019F000BF0300D51E436E60AE6826404F68FF02ED
:101A000000D51E43AE60EE6834404E68B60202D583
:101A100026001C003443EC60521C0B681C00D440B0
:101A200000D182E0019D95402B40F5D05400032762
:101A3000A740FE4302964E68012E05D0022E03D029
:101A4000112E01D0122E0FD18768029E3E40CF6822
:101A5000A740374387604668AE434D682D09019F14
:101A60002F40974037434760C568029E2E408D68DF
:101A7000A5403543C56095006E4675704D68022DD2
:101A800001D0122D1AD1D508AD0045192E6A039642
:101A90006E4677781C263E406F463E70039EB446E5
:101AA0000F276E463678B7406646BE43B4460F6988
:101AB0006E463678B740664637432F62076803267E
:101AC000029D3D404F683740BC4627006446BC40FD
:101AD0002C4304604C68E4009ED5594C2468019D59
:101AE0002543574C2560574C9508AD006419029466
:101AF00024686D466F780C253D400F27AF40BC43EE
:101B0000A027FF05B84201D1002660E74E4FB8423A
:101B100001D1019E5BE74D4FB84201D1022656E745
:101B20004B4FB84200D04EE751E7FFBDFFB503234E
:101B3000029301230193039100213AE0062703E079
:101B40003D4DA842FAD105278D00B4460C262E4003
:101B5000B740BC4511D1D643384A12683240374F9E
:101B60003A607A6832407A60BA683240BA60FA689D
:101B70001640FE601A68A2431A60029A4B009A400F
:101B8000036813430360CB089B00C3181C6A0F262D
:101B90001C272F40BE40B4431C62D343C2681A4086
:101BA000C2604268009CA243426082681340836026
:101BB000491C039ACA4025D0019A8A400092039B8F
:101BC0001A40F5D01F4B8C08A4001B191E680F2467
:101BD0008D000C272F40BC402640A025ED05A842D3
:101BE00001D10027B0E7184DA84201D1019FABE712
:101BF000164DA84201D10227A6E7154DA8429FD154
:101C0000029FA1E7FFBD002A01D081617047816278
:101C1000704742690B0013401B04914319438161D3
:101C200070470C4A1368034000D1704780B51060BC
:101C300000F012F801BD0000001C0050000401403B
:101C40003410024008000140000400500008005019
:101C5000000C0050140401407047F1B401684218B0
:101C600041684808131800988068C9071ED549467E
:101C700040181BE01778521C0770401C761EF9D1E3
:101C8000002C13D01678521C89080D40032D01D169
:101C90001578521C290271184D424119A41C05D017
:101CA0000D78491C0570401C641EF9D19A420FD072
:101CB0001178521C032503260E4002D11678F61C1B
:101CC000521C0C090F2CD9D114780F34521CD5E7B3
:101CD00000980C30F2BC704710B5C20018231340B6
:101CE000FF249C40E2438907090E9940030004D475
:101CF0001F489B089B00C01806E01E4B0007000F02
:101D0000083880088000181803681A4011430160E1
:101D100010BD80B5FFF7E0FF01BD010005D4012132
:101D2000C006C00E8140144801607047010009D40C
:101D30000121C006C00E814010480160BFF34F8FE3
:101D4000BFF36F8F704710B5401E80214904884251
:101D500001D3012010BD0A4C606003210020C04364
:101D6000FFF7BAFF0020A0600721216010BD00002E
:101D700000E400E01CED00E000E100E080E100E0B4
:101D800010E000E038B505000D4CFA208000217805
:101D9000FFF79EFC01000B480068FFF799FCFFF776
:101DA000D2FF00280AD1042D08D2002229000020E9
:101DB000C043FFF7AEFFA560002032BD012032BD59
:101DC000140100202001002030B4434351435D182A
:101DD000010C0C00130C5C432D1980B2434392B2EA
:101DE00051430024C918644124040B04090C091947
:101DF0005043C018694130BC7047FEE77047FEE7AA
:101E00007047FEE710B500240748016840220A43E6
:101E100002600020FFF7B6FF002801D0012401E096
:101E200000F014FE200010BD00200240F8B586B07E
:101E300014220021684600F017FE4548016804227C
:101E40000A430260016804221140059105990124AA
:101E500001682143016001682140059105990168ED
:101E600002220A430260006802210840059005989A
:101E700000228903A020C005FFF7C5FE012208212A
:101E80003448FFF7C0FEC0200002009003260196F0
:101E90000025029569463048FFF78EFD00940195B4
:101EA00002956946A020C005FFF786FD2B480090EB
:101EB000019602956946A020C005FFF77DFD2848E0
:101EC00000900194029503956946A020C005FFF794
:101ED00073FD80200090234F019702956946A02052
:101EE000C005FFF769FD61200090019602956946E3
:101EF0001848FFF761FD042000900194029569469F
:101F00001448FFF759FD022000900195029569469B
:101F10001048FFF751FD0820009001940220029024
:101F2000039469460B48FFF747FD10200090019786
:101F3000029569460748FFF73FFD00220021072070
:101F4000FFF7E7FE0720FFF7E8FE07B0F0BD00BF90
:101F50002C1002400004005000080050321900000C
:101F6000408000000000111080B501200C490A6873
:101F700002430A600968084000900098002200218E
:101F80000A20FFF7C6FE0A20FFF7C7FE0022002145
:101F90000B20FFF7BEFE0B20FFF7BFFE01BD00BF09
:101FA0003010024010B5304C30482060304860603E
:101FB0000020A0600121E16020616061A061E0611A
:101FC0002062200000F05AFD002801D0FFF7D6FC67
:101FD0000021200001F0A4F8002801D0FFF7CEFC7A
:101FE0000021200001F0B9F8002801D0FFF7C6FC5D
:101FF00010BDF8B586B0040014220021684600F038
:1020000033FD2068194988422CD10220194C2168DF
:1020100001432160216808400590059880200090C8
:102020001227019701250295032603960495694618
:102030001148FFF7C1FCA00D00900197029503968F
:102040000420049069460C48FFF7B6FCE068690577
:102050000143E160002200211720FFF75AFE1720FC
:10206000FFF75BFE07B0F0BD5007002000540040B2
:102070000E0900202C1002400004005080B51448C6
:10208000144901600021416024228260124AC2602A
:10209000016141618161C16101F088F8002801D0CE
:1020A000FFF76CFC01BD00680A49884200D0704708
:1020B00080B50A4801688022D2020A4302600022E9
:1020C00000210220FFF725FE0220FFF726FE01BDBA
:1020D000DC07002000280040E70300005010024009
:1020E00030B587B01422002102A800F0BDFC082200
:1020F0000021684600F0B8FC1F4C8020C00520601D
:102100001E4860600025A560FA208000E06025611F
:102110006561200001F0E8F8002801D0FFF72EFCEF
:102120000295039502A9200001F092F9002801D040
:10213000FFF724FC009501956946200001F04CFA58
:10214000002801D0FFF71AFC07B030BD00688021DD
:10215000C905884200D0704780B50948016801224E
:102160000A430260002200210F20FFF7D2FD0F205A
:10217000FFF7D3FD01BD00009C0700203F1F0000BA
:102180003810024010B5FF23FF2209E004785C40BC
:10219000401CA84B1C192378534080225200A25C9B
:1021A0000C00611E2404F1D11802104310BD000080
:1021B00038B505000C00002D07D14F229E4900BF05
:1021C0000CA001F037FA00BF00BF21006846FFF7FE
:1021D000EBFB22002900684600F0C4FA0021280029
:1021E00005E06A46631E5B1AD25C4254491CA14258
:1021F000F7DB32BD70537263213D3000FCB59BB0FC
:1022000014001C290FD1002700210022835CC9186B
:10221000521C192AFADB827E1202437ED21892B235
:1022200089B28A4201D0012071E01C22010005A878
:1022300000F098FA05AEF01C01F00EFA0290F01DC5
:1022400001F00AFA019030000B3001F005FA0500A8
:1022500030000F3001F000FA00900CA877493C22C2
:1022600000F066FA0CAEB11D029801F001FA3100DF
:102270001531019801F0FCF91595310037310098BE
:1022800001F0F6F9042022990870002501A80CA994
:102290003A01D21B89180F2200F064FA6846808840
:1022A000800001A94988014368460180E9B26118AC
:1022B00002780A7042784A70AD1C01A8001DE9B28C
:1022C000611802780A706D1CEDB22E1DF6B201A8DD
:1022D0004079002803D1042201A8811D04E00128CF
:1022E00007D1042201A90A31601900F03BFA350038
:1022F00007E0022805D101A80E30611902780A70A2
:102300006D1C7F1C042FC1DB1C98057000201DB0C4
:10231000F0BDF8B59CB016002A290DD1002102228B
:10232000835CC918521C292AFADB2922825CFF230C
:102330004B40DBB29A4201D0012079E02A22010011
:1023400011A800F00FFA11AC042120001D30FFF796
:102350002FFF042120002130FFF72AFF0421200055
:102360002530FFF725FF20001D3001F075F90190A1
:102370002000213001F070F900902000253001F09C
:102380006BF9040005A89749302200F0D1F905AF98
:10239000B91D009801F06CF939001531019801F070
:1023A00067F90E940320229908700024002701A8E1
:1023B00005A93A01D21B89180F2200F0D3F968460B
:1023C0008088800001A94988014368460180E1B204
:1023D000711802780A7042784A70A41C01A8001D86
:1023E000E1B2711802780A70641CE4B2251DEDB2E6
:1023F00001A84079002803D1042201A8811D04E02E
:10240000012807D1042201A90A31301900F0AAF9E4
:102410002C0007E0022805D101A80E3031190278FE
:102420000A70641C7F1C022FC1DD1C980470002000
:102430001DB0F0BD24010020743A0008B43A000831
:10244000F8B5C8B014004A2911D100270021002294
:10245000835CC918521C472AFADB4822825C1202AC
:102460004723C35CD21892B289B28A4201D00120BC
:10247000B6E04E9D4A22010035A800F073F935AE52
:102480003000113001F0E8F80A903000153001F00A
:10249000E3F809903000193001F0DEF808903000C0
:1024A0001D3001F0D9F807903000213001F0D4F848
:1024B00006903000253001F0CFF805903000313023
:1024C00001F0CAF804903000353001F0C5F80390EF
:1024D00030002D3001F0C0F802903000413001F0A2
:1024E000BBF801904520305C694608700BA889490B
:1024F000A82200F01DF90BAEB11D0A9801F0B8F842
:1025000031001531099801F0B3F8089814903100A2
:102510003331079801F0ACF831004231069801F0F0
:10252000A7F831005131059801F0A2F802982390E4
:1025300031006F31049801F09BF831007E3103982F
:1025400001F096F831009131019801F091F8684658
:1025500000780BA9A42288540B202870002501A81C
:102560000BA93A01D21B89180F2200F0FBF868462C
:102570008088800001A94988014368460180E9B24A
:10258000611802780A7042784A70AD1C01A8001DDB
:10259000E9B2611802780A706D1CEDB22E1DF6B218
:1025A00001A84079002803D1042201A8811D04E07C
:1025B000012807D1042201A90A31601900F0D2F8DC
:1025C000350007E0022805D101A80E306119027814
:1025D0000A706D1C7F1C0A2FC1DD48980570002011
:1025E00049B0F0BD2C3B0008F8B5E0B016001D0066
:1025F000502905D0302903D01C2901D0012048E002
:1026000000246B461C820700502908D104A80090C2
:1026100004AB5B1C47AA3800FFF712FF10E01C292F
:1026200011D106223900133105A800F09BF804A847
:10263000009004AB5B1C47AA1C213800FFF7DEFDAD
:1026400001000CD025E0302909D104A8009004AB8A
:102650005B1C47AA3800FFF75CFE010019D16846F1
:102660004482407C039047A80290019400946846FD
:10267000037C05AA04A9891C07A800F00DF8684688
:10268000428A07A9300000F06DF86846408A287039
:10269000002061B0F0BD0000FBB505001400002D66
:1026A00007D11D4A1D4900BF1DA000F0C3FF00BF98
:1026B00000BF099E089F21000622280000F052F862
:1026C0006846007A0001F90001430E43684606702F
:1026D000A91D02780A700BA802780A99E81D00F07B
:1026E00041F80BA80478E11D89B22800FFF74AFDE4
:1026F0006946488000A8801CE91D0BAA1278891839
:1027000002780A7042784A700934019804802800DF
:10271000FEBD0000CC3900084B020000743A0008EE
:1027200030213D704E6574776F726B446174610047
:1027300070B4103A03D378C9103A78C0FBD253076B
:1027400001D318C918C001D508C908C0D20704D3DD
:102750000B880380891C801C002A01D50B7803702C
:1027600070BC70478B0701D18307E1D0124205D0BE
:102770000B78491C0370401C521EF9D17047FEE7CC
:1027800070B586B014216846FFF70EF90120434C5E
:1027900021680143216021680840059005980220C6
:1027A00021680143216021680840059005980420B4
:1027B0002168014321602168084005900598C020E8
:1027C00000020090032601960025029569463448D0
:1027D000FFF7F2F833480090019602956946A02071
:1027E000C005FFF7E9F83048009001960295694668
:1027F0002E48FFF7E1F82068012188432060206817
:10280000022188432060206804218843206006B0AC
:1028100070BD80B52648FEF73DFA2648FEF73AFA25
:10282000FFF7AEFF0A20FFF7ABF801BD38B5050092
:10283000FFF7EFFF204C200000F09DFF042229004D
:10284000200000F01FFF0121012000F0F9FF00F03F
:1028500001F831BD1CB519480168802252050A43B0
:102860000260FFF729F8FFF7E1FAFFF77DFB104858
:10287000FDF75CFC0F4C2000FDF758FCFEF710F94B
:10288000FFF7FCFBFEF724F9FFF72AFCFF2069465F
:10289000087001222000FDF768FC13BD2C100240D7
:1028A000000800503FFF0000FF010000000400503E
:1028B00024030020CC060020DC0700203810024052
:1028C000FEB5040000200190564D207880067AD590
:1028D00080204005A96B014004D1A96B0843A8637F
:1028E00001200190AF0D50480068384013D14E4888
:1028F00000900068384300990860FEF739FF060031
:1029000000980068384006D1FEF732FF801B65282A
:10291000F6D30320FEBD29686068C02292030A40F6
:10292000C021890301408A420BD0C02189020140A5
:10293000C0229202914204D12968890301D5012065
:10294000FEBD2A6DC0218902114022D0C022920210
:10295000024091421DD0207880061AD5296D334857
:102960000840296DFA020A432A65296D304A0A4057
:102970002A65286507400CD0FEF7FAFE0600286D90
:10298000800506D4FEF7F4FE801B2A498842F6D360
:10299000BFE76168C020800202000A40824206D17F
:1029A0002A68254B134002010A401A432A60296D08
:1029B00062681040084328650198002803D0A86B7E
:1029C0001E490140A9632078C00705D5E86C0321A2
:1029D0008843A1680143E9642078800705D5E86C45
:1029E0000C218843E1680143E9642078400705D55C
:1029F000E86C1349014020690843E8642078000727
:102A000005D5E86C0F49014060690843E864207807
:102A1000000605D5E86C0C490140A0690843E8644C
:102A20000020FEBD0010024000700040FFFFFCFFD0
:102A3000FFFFF7FF89130000FFFFCFFFFFFFFFEF4E
:102A4000FFF3FFFFFFCFFFFFFFFFF3FF0548016824
:102A500001220A4302604168802252050A43426013
:102A6000704700BF3410024010B504000800110088
:102A700002002000FEF79AFF200010BD70B5040090
:102A800001D1012070BD250040350026687800285E
:102A900003D12E702000FFF7ACFA24206870206864
:102AA000016801229143016060681E49014020686D
:102AB000016121681C488A6802408A60E168012936
:102AC000A16801D1C24301E0842212020A432168B5
:102AD0008A60E168022903D18021090122685160DE
:102AE00021684A68114B13434B602168CA68104043
:102AF000C860206961690143A06900020843216838
:102B0000C860E069216A01432068016020680168AB
:102B100001220A4302606E60202068702663AE7056
:102B2000002070BDFFFFFFF0FF7FFFFF008000026D
:102B3000026891691268436B002B00D1704780B521
:102B4000984701BD38B501688A690B68D40508D576
:102B50001C0606D5446C0125254345648024640089
:102B6000CC61510509D5190607D5416C08240C43E1
:102B700044648021C9000468E161910509D5190602
:102B800007D5416C02220A43426480218900026811
:102B9000D161416C0B220A4001D000F0DDF931BD5A
:102BA000F8B50400E56A4020205C012801D102202C
:102BB000F2BD0E000120402160541700B00605D57B
:102BC000B80603D53100200000F0FFF88020400453
:102BD0003B49F20633D5FA0631D51022638D002B1E
:102BE0001CD1200040304078282807D1500585426C
:102BF00004D13100200000F079F960E0200040307D
:102C00004078292807D18D4205D02068C261200074
:102C100000F027FA50E02068C26150E02168CA61E4
:102C2000210040314A68042313434B60002D01D03A
:102C3000854244D14968200000F08EF93FE0CA4344
:102C4000730717D57B0715D5608D00280CD0206839
:102C5000406A636A1870606A401C6062208D801848
:102C60002085608D80186085608D002827D18D4279
:102C700025D021E0310706D5390704D531002000E1
:102C800000F024F81BE0B10719D5B90717D5618DFD
:102C900000290DD0606A007821688862606A401C53
:102CA0006062608D80186085208D8018208506E028
:102CB000854201D0002D02D1200000F054F801E03F
:102CC0000000FFFF002040216054F2BDFEB5060069
:102CD00034004034306800250822617828230B40F6
:102CE000282B3DD18169C903CB0F69460B708169DF
:102CF000090CFE270F4081688905890D6B465980B4
:102D0000C368FE2119406B4699801103F368022BBA
:102D10001BD106231F40BC466F467F88FF093B40FE
:102D20009C450BD1A168491CA160A168022919D159
:102D3000A560C2612570684642880CE0300000F052
:102D4000BDF925706846828805E0300000F0B6F9CC
:102D500025703A0068460178300000F0A9FDF7BD03
:102D6000C2612570F7BD70B50400206801682600B7
:102D700040360025B5704A0402D50168734A03E065
:102D8000090403D50168724A0A400260282071785C
:102D900029290BD17070212020630121200000F02F
:102DA0008DF93570200000F084FD70BD71782A29FE
:102DB0000AD17070222020630221200000F07EF9E9
:102DC0003570200000F076FD70BDFEB5040020686F
:102DD0000268019200912500403569782027C7617B
:102DE000212901D0292905D19149200000F066F957
:102DF000212008E0222901D02A2905D1A04920005C
:102E000000F05CF9222020632068BE024168314353
:102E10004160206841684F4A0A404260200000F04B
:102E200020F90198400406D520680168474A0A4005
:102E30000260A06B08E0019806400AD02068016893
:102E4000434A0A400260E06B002802D000684068F4
:102E5000608504200099014012D0009981430091BF
:102E60002168496A626A1170616A491C6162218D38
:102E7000002905D0834A89182185618D89186185CB
:102E8000618D002902D06968084368600026AE7031
:102E90006663686800280BD06968200000F05CF861
:102EA0006878282821D10099200000F01FF8F7BD8C
:102EB000E06A754988420BD02000FFF754FF724842
:102EC000E0626F7026632E70200000F0F4FCF7BD06
:102ED000687822286F7026632E7003D1200000F0DE
:102EE000E9FCF7BD200000F0E4FCF7BD70B504007C
:102EF0004E48E06200252563260040362020707091
:102F0000B57065630420014012D02168496A626A85
:102F10001170616A491C6162218D002908D0594AEB
:102F200089182185618D89186185716808437060F1
:102F30005649200000F0C2F810202168C8613570A1
:102F4000200000F0B8FC70BD00000000FFBFFFFFD4
:102F5000FF7FFFFF00E800FEF8B5040027004037C0
:102F600078780025BD70314AE26265857A68114340
:102F70007960282803D0292801D02A2808D10321E4
:102F8000200000F09BF8282078704148606309E039
:102F90003E49200000F092F87878602801D0202087
:102FA00078706563206B3B4EA16B00291AD0112805
:102FB00001D0212816D120680168490403D5016891
:102FC000354A0A400260A06BFEF71DF8012829D09F
:102FD000A06B86633D70A06BFDF77CFF002824D0BA
:102FE000A06B1CE0E16B00291CD0122801D0222824
:102FF00018D120680168090403D50168274A0A40EE
:103000000260E06BFDF7FFFF01280BD0E06B8663E9
:103010003D70E06BFDF75EFF002806D0E06B816B32
:103020008847F1BD200000F005F8F1BD0000FFFF6A
:103030000180000010B50200303200214123C35C42
:10304000602B08D120234124035511604022815474
:1030500000F032FC10BD11604022815400F02DFCC4
:1030600010BD00688169890701D5002181620121B5
:1030700082690A4002D18269114381617047000070
:1030800002800000FFFF00000000FFFF038000003F
:10309000A12B0008A1300008FFBFFFFFFF7FFFFF4B
:1030A00080B5806A816B0022002900D08A63C16BE1
:1030B000002900D08A63FFF7BDFF01BD10B50022D3
:1030C0002823CC0706D542224124045D1C40282C2D
:1030D00000D0F2228C070AD5140044222243412456
:1030E000045D2340282B02D01300B0221A430B04A6
:1030F00002D51300B8221A43102902D111009022E0
:1031000008E0202902D11100202203E0402902D149
:10311000110040220A43006801689143016010BD1C
:1031200070B5020040325378202B14D14023C35C89
:10313000012B10D0012313702424547004682568D7
:103140009D43256004682568164E2E40266004685D
:10315000256829431CE0022070BD70B50200403292
:103160005378202B12D14023C35C012B0ED00123B6
:10317000137024245470046825689D4325600468F6
:103180002568094E2E400902314301E0022070BD3E
:103190002160006801680B4303602020507000200C
:1031A000107070BDFFEFFFFFFFF0FFFFF8B50400E8
:1031B00054D000272120205C002804D1202167540E
:1031C0002000FEF770FF022021216054CA202168F0
:1031D00048625320216848620425FF26200000F041
:1031E00065F80028206803D046622120255435E088
:1031F00081681F4A0A40826020688168636822698A
:103200001A43A36913430B438360E0682168086194
:1032100020680169A26812040A4302612068C1683B
:1032200080229143C1602068C16C03229143C16434
:103230002068C16CE269636913430B43C36420686F
:10324000806880060CD4200000F014F8002807D015
:103250002068466221202554202027540120F2BDF9
:10326000206846620120212160540020F2BD000048
:10327000BFFF8FFF38B504002068C168A0229143CA
:10328000C160FEF775FA05002068C068800607D4A3
:10329000FEF76EFA401B04498842F5D3032032BD85
:1032A000002032BD00000000E903000070B50500F9
:1032B00028684024C168214011D10021C943C16060
:1032C000FEF756FA06002868C068204007D1FEF7CE
:1032D0004FFA801B03498842F5D3032070BD0020BC
:1032E00070BD0000E903000010B5040001D1012009
:1032F00010BD3920205C002804D138216054200002
:10330000FEF724FF022039216054211D206800F0BF
:10331000CAF801203E2160543A2160543B21605498
:103320003C2160543D216054392100F000F8605484
:10333000002010BD0000F8B504002068002502261A
:103340000169314015D0C168314012D00221C94312
:103350000161012121768069800703D0200000F0FF
:10336000ADFA05E0200000F0AAFA200000F0A8FA6B
:103370002576206804270169394016D0C168394094
:1033800013D00421C943016126768069C0218900D8
:10339000014003D0200000F091FA05E0200000F089
:1033A0008EFA200000F08CFA257620680826016944
:1033B000314014D0C168314011D00821C9430161A6
:1033C0002776C069800703D0200000F077FA05E077
:1033D000200000F074FA200000F072FA25762068D0
:1033E000102102690A4016D0C268114013D0102182
:1033F000C94301612676C069C0218900014003D01C
:10340000200000F05BFA05E0200000F058FA2000F0
:1034100000F056FA25762068012102690A4008D09A
:10342000C268114005D00121C9430161200000F0AC
:1034300048FA2068402102690A4008D0C268114059
:1034400005D04021C9430161200000F03BFAF1BDE5
:10345000F8B504003820205C012801D10220F2BD1B
:103460002700383701253D7002203922A05400265C
:10347000200000F041F8002800D005E02068C16875
:1034800040229143C16004E0392025543E70012060
:10349000F2BD2068C168174A0A40C260392025542D
:1034A0003E700020F2BD70B50268464B464C802548
:1034B000ED05A84203D0A04201D0984208D1702661
:1034C000B24316004A683243A84203D0A04201D05A
:1034D000984203D13D4B1340CA681A4380239A4354
:1034E0000B69134303608A68C26209688162012123
:1034F000416170BDFFBFFFFF10B500688268702397
:103500009A434B681343072293430A681A43826025
:103510004A68402A0BD0502A1CD0602A1FD0702A3B
:1035200021D10B698A68C96800F042F81BE00A687B
:10353000052A01D1012010BD026A036A0124A343B8
:1035400003628369F024A343096909011943816176
:10355000026208E00A69896800F007F803E00A6976
:10356000896800F013F8002010BD30B5036A046AC2
:103570000125AC4304628469F025AC431201224367
:1035800082610A2293431943016230BD30B5036A58
:103590001024A34303628469036A0D4D254012037E
:1035A0002A438261A022934309011943016230BD7D
:1035B00030B58468074D254029430A431902114359
:1035C000816030BD0014014000080140FFFCFFFF96
:1035D000FF0FFFFFFF00FFFFF0B53822825C012ADA
:1035E00001D10220F0BD0200383201231370022401
:1035F0003925445505686E68AC687027BE430F686E
:1036000037436F6005689E07B54205D0074EB54247
:1036100002D0074EB54204D18026B4434968214305
:10362000A9603921435400201070F0BD000801400A
:103630000014014000B583B00091019202906A46E7
:1036400004491820ABBE002801D100F03CF903B0BA
:1036500000BD00BF10100200C37882784178007866
:103660001B021A4309021204084310437047FEE785
:1036700084460870000A4870000A8870000AC87002
:1036800060467047F8B504000F0016002020205C4B
:10369000012801D10220F2BD012020216054022026
:1036A00021216054CA202168486253202168486261
:1036B0002068806840050DD5FEF75AF8050020689F
:1036C000C068400706D5FEF753F8401B55498842AD
:1036D000F5D319E020688168534A0A408260206867
:1036E000C16880221140524A0A43C260FEF740F886
:1036F0003D0007002068C168490706D4FEF738F886
:10370000C01B48498842F5D31AE0456120688168AA
:10371000072291438160206881680E438660802083
:10372000400344490A6802430A608A68104388607B
:10373000206881688022D2010A4382600BE0000089
:10374000FF202168486203202121605400202021AD
:1037500060540320F2BD206881688022D2000A43B1
:103760008260FF20216848620120212160540020EE
:1037700020216054F2BD70B505002020285C01288E
:1037800001D1022070BD012420202C5402202121CF
:103790006854CA202968486253202968486228680A
:1037A0008168214A0A40826028688168224A0A406A
:1037B0008260FDF7DDFF06002868C168490710D464
:1037C000FDF7D6FF801B19498842F5D3FF202968F1
:1037D00048620320212168540020202168540320DE
:1037E00070BDFF21416221202C540020202168540B
:1037F00070BD000010B504002068C068400509D500
:10380000200000F065F82068C16880221140084A55
:103810000A43C2608020400308490860012021213A
:10382000605410BDE9030000FFFBFFFFE903000047
:103830007FFBFFFF00040140FFBFFFFF14040140B6
:10384000F0B580229200164B1C681440154D2E686E
:10385000F507ED0F002C05D0002D03D01E68124F88
:1038600037401F601E680327BE43304318600F486F
:103870000668042737430760012901D130BF02E001
:1038800040BF20BF20BF01680426B1430160002C67
:1038900004D0002D02D0186802431A60F0BD000069
:1038A0000070004020000140FFFDFFFF10ED00E030
:1038B0007047704770477047704770477047704750
:1038C00070477047704780B5012000F003F801BDD4
:1038D0007047FEE780B500BF00BF024A1100182004
:1038E000ABBEFBE726000200FEE7FEE7704770472D
:1038F00080B500F063F801BD80B52648FFF77AFF78
:1039000001BD80B51020FEF78CF98020FEF789F903
:1039100001BD80B52048FDF704FB2048FDF701FB01
:1039200001BD80B51E48FDF7FCFA1E48FDF7F9FA07
:1039300001BD80B51C48FFF7FEFC01BD80B51B48EA
:1039400001688969E022D2000A4002D0FFF7FAF844
:1039500001BDFFF7EDF801BD80B51548FCF788FC07
:1039600001BD80B5134801681022CB6913400DD00A
:103970000A620C4909684968FF22521A0E494A80B6
:10398000120403D00A78012313430B70FCF770FC78
:1039900001BD0000DC070020F4040020AC0400207E
:1039A000840500203C0500209C07002050070020D3
:1039B000CC06002024030020A80300200248416810
:1039C00002788918416070471401002057000100F7
:1039D00004000000000000000000005C0001000482
:1039E000000000000000000000005500010004007D
:1039F0000000000000000000005A00010004000068
:103A00000000000000000000590001000400000058
:103A1000000000000000005E000100040000000043
:103A20000000000000005F00010004000000000032
:103A30000000000000580001000400000000000029
:103A4000000000005D000100040000000000000014
:103A50000000006000010004010000000000000000
:103A600000006200010001020000000000000000F0
:103A700000000000443A5C30335F576F726B737024
:103A80006163655C30315F536F6674776172655F47
:103A9000576F726B53706163655C4F4D5C436F721F
:103AA000655C5372635C7472616E736665722E63DB
:103AB000000000004A0001000400000000000000B7
:103AC0000000004B000100040000000000000000A6
:103AD00000004C0001000400000000000000000095
:103AE000004D000100040100000000000000000083
:103AF00070B40123002413E00168001D194202D0B4
:103B00004D466D1E49190C60091D121F042AFAD278
:103B10000D00960701D50C80AD1C1A4000D02C700A
:103B20000268001D002AE7D170BC70477A000100CE
:103B300004000000000000000000007B0001000401
:103B4000000000000000000000007C0001000400F4
:103B500000000000000000000000000010B5074950
:103B600079441831064C7C44163404E0081D0A6878
:103B7000891888470100A142F8D110BD0800000053
:103B8000240000006DFFFFFFE0040000240300207C
:103B900000000000C7E0FFFF980000008202000064
:103BA000000000207047000000000000000000003E
:103BB0000102030406070809030406080C10182074
:103BC0003000000000F00DF8002801D0FFF7C6FF1C
:103BD00000BF00BF002000BF00BFFDF7F7FD00F0F1
:103BE00002F80120704780B500F002F801BDFEE741
:103BF00007463846FFF76EFEFBE7FEE701488047C1
:103C000001480047A53B00080D3C000800BF00BF6D
:103C100000BF00BFFFF7D6FF000000000102030451
:103C2000FEE7FEE7FEE7FEE7FEE7FEE7FEE7FEE76C
:103C3000120001F00DF0245041524100070B00002A
:103C400007087DC100015601033204082008200046
:103C500000C1814001C0804104610C2108E118A12C
:103C60001CF10B30F10738F12760F11F70F1206073
:103C700000FDC0C101C30302C2C60607C705C5C413
:103C800004CC0C0DCD0FCFCE0E0ACACB0BC9090840
:103C9000C8D81819D91BDBDA1A1EDEDF1FDD1D1C80
:103CA000DC14D4D515D71716D6D21213D311D1D010
:103CB00010F03031F133F3F23236F6F737F53534B0
:103CC000F43CFCFD3DFF3F3EFEFA3A3BFB39F9F880
:103CD0003828E8E929EB2B2AEAEE2E2FEF2DEDEC20
:103CE0002CE42425E527E7E62622E2E323E1212050
:103CF000E0A06061A163A3A26266A6A767A5656450
:103D0000A46CACAD6DAF6F6EAEAA6A6BAB69A9A8BF
:103D10006878B8B979BB7B7ABABE7E7FBF7DBDBCFF
:103D20007CB47475B577B7B67672B2B373B171708F
:103D3000B0509091519353529296565797559594EF
:103D4000549C5C5D9D5F9F9E5E5A9A9B5B995958FF
:103D500098884849894B8B8A4A4E8E8F4F8D4D4C9F
:103D60008C448485458747468682424383418180CF
:013D70004012
:0400000508003C0DA6
:00000001FF
